{
  "contractName": "MagellanictokenSale",
  "abi": [
    {
      "constant": true,
      "inputs": [],
      "name": "tokenSold",
      "outputs": [
        {
          "name": "",
          "type": "uint256"
        }
      ],
      "payable": false,
      "stateMutability": "view",
      "type": "function",
      "signature": "0x519ee19e"
    },
    {
      "constant": true,
      "inputs": [],
      "name": "tokenContract",
      "outputs": [
        {
          "name": "",
          "type": "address"
        }
      ],
      "payable": false,
      "stateMutability": "view",
      "type": "function",
      "signature": "0x55a373d6"
    },
    {
      "constant": true,
      "inputs": [],
      "name": "tokenPrice",
      "outputs": [
        {
          "name": "",
          "type": "uint256"
        }
      ],
      "payable": false,
      "stateMutability": "view",
      "type": "function",
      "signature": "0x7ff9b596"
    },
    {
      "inputs": [
        {
          "name": "_contract",
          "type": "address"
        },
        {
          "name": "_tokenPrice",
          "type": "uint256"
        }
      ],
      "payable": false,
      "stateMutability": "nonpayable",
      "type": "constructor",
      "signature": "constructor"
    },
    {
      "anonymous": false,
      "inputs": [
        {
          "indexed": true,
          "name": "_buyer",
          "type": "address"
        },
        {
          "indexed": true,
          "name": "_amount",
          "type": "uint256"
        }
      ],
      "name": "Sell",
      "type": "event",
      "signature": "0x5e5e995ce3133561afceaa51a9a154d5db228cd7525d34df5185582c18d3df09"
    },
    {
      "constant": false,
      "inputs": [
        {
          "name": "_numberOfTokens",
          "type": "uint256"
        }
      ],
      "name": "buyTokens",
      "outputs": [],
      "payable": true,
      "stateMutability": "payable",
      "type": "function",
      "signature": "0x3610724e"
    },
    {
      "constant": false,
      "inputs": [],
      "name": "endSale",
      "outputs": [],
      "payable": false,
      "stateMutability": "nonpayable",
      "type": "function",
      "signature": "0x380d831b"
    }
  ],
  "bytecode": "0x608060405234801561001057600080fd5b506040516040806108108339810180604052604081101561003057600080fd5b810190808051906020019092919080519060200190929190505050336000806101000a81548173ffffffffffffffffffffffffffffffffffffffff021916908373ffffffffffffffffffffffffffffffffffffffff16021790555081600160006101000a81548173ffffffffffffffffffffffffffffffffffffffff021916908373ffffffffffffffffffffffffffffffffffffffff16021790555080600281905550505061072c806100e46000396000f3fe60806040526004361061006d576000357c0100000000000000000000000000000000000000000000000000000000900463ffffffff1680633610724e14610072578063380d831b146100a0578063519ee19e146100b757806355a373d6146100e25780637ff9b59614610139575b600080fd5b61009e6004803603602081101561008857600080fd5b8101908080359060200190929190505050610164565b005b3480156100ac57600080fd5b506100b56103e3565b005b3480156100c357600080fd5b506100cc61069e565b6040518082815260200191505060405180910390f35b3480156100ee57600080fd5b506100f76106a4565b604051808273ffffffffffffffffffffffffffffffffffffffff1673ffffffffffffffffffffffffffffffffffffffff16815260200191505060405180910390f35b34801561014557600080fd5b5061014e6106ca565b6040518082815260200191505060405180910390f35b610170816002546106d0565b3414151561017d57600080fd5b80600160009054906101000a900473ffffffffffffffffffffffffffffffffffffffff1673ffffffffffffffffffffffffffffffffffffffff166370a08231306040518263ffffffff167c0100000000000000000000000000000000000000000000000000000000028152600401808273ffffffffffffffffffffffffffffffffffffffff1673ffffffffffffffffffffffffffffffffffffffff16815260200191505060206040518083038186803b15801561023957600080fd5b505afa15801561024d573d6000803e3d6000fd5b505050506040513d602081101561026357600080fd5b81019080805190602001909291905050501015151561028157600080fd5b600160009054906101000a900473ffffffffffffffffffffffffffffffffffffffff1673ffffffffffffffffffffffffffffffffffffffff1663a9059cbb33836040518363ffffffff167c0100000000000000000000000000000000000000000000000000000000028152600401808373ffffffffffffffffffffffffffffffffffffffff1673ffffffffffffffffffffffffffffffffffffffff16815260200182815260200192505050602060405180830381600087803b15801561034657600080fd5b505af115801561035a573d6000803e3d6000fd5b505050506040513d602081101561037057600080fd5b8101908080519060200190929190505050151561038c57600080fd5b80600360008282540192505081905550803373ffffffffffffffffffffffffffffffffffffffff167f5e5e995ce3133561afceaa51a9a154d5db228cd7525d34df5185582c18d3df0960405160405180910390a350565b6000809054906101000a900473ffffffffffffffffffffffffffffffffffffffff1673ffffffffffffffffffffffffffffffffffffffff163373ffffffffffffffffffffffffffffffffffffffff1614151561043e57600080fd5b600160009054906101000a900473ffffffffffffffffffffffffffffffffffffffff1673ffffffffffffffffffffffffffffffffffffffff1663a9059cbb6000809054906101000a900473ffffffffffffffffffffffffffffffffffffffff16600160009054906101000a900473ffffffffffffffffffffffffffffffffffffffff1673ffffffffffffffffffffffffffffffffffffffff166370a08231306040518263ffffffff167c0100000000000000000000000000000000000000000000000000000000028152600401808273ffffffffffffffffffffffffffffffffffffffff1673ffffffffffffffffffffffffffffffffffffffff16815260200191505060206040518083038186803b15801561055957600080fd5b505afa15801561056d573d6000803e3d6000fd5b505050506040513d602081101561058357600080fd5b81019080805190602001909291905050506040518363ffffffff167c0100000000000000000000000000000000000000000000000000000000028152600401808373ffffffffffffffffffffffffffffffffffffffff1673ffffffffffffffffffffffffffffffffffffffff16815260200182815260200192505050602060405180830381600087803b15801561061957600080fd5b505af115801561062d573d6000803e3d6000fd5b505050506040513d602081101561064357600080fd5b8101908080519060200190929190505050151561065f57600080fd5b60008060009054906101000a900473ffffffffffffffffffffffffffffffffffffffff1690508073ffffffffffffffffffffffffffffffffffffffff16ff5b60035481565b600160009054906101000a900473ffffffffffffffffffffffffffffffffffffffff1681565b60025481565b6000808214806106ef575082828385029250828115156106ec57fe5b04145b15156106fa57600080fd5b9291505056fea165627a7a72305820d23ef6ccf62a0f6f287b6cbb1b1223101f2528745824b2c4a34ff43997641d490029",
  "source": "pragma solidity >=0.4.20;\r\n\r\nimport \"./MagellanicToken.sol\";\r\n\r\ncontract MagellanictokenSale{\r\n    address admin;\r\n    MagellanicToken public tokenContract;\r\n    uint256 public tokenPrice;\r\n    uint256 public tokenSold;\r\n    \r\n    event Sell(\r\n        address indexed _buyer,\r\n        uint256 indexed _amount\r\n    );\r\n\r\n    constructor(MagellanicToken _contract,uint256 _tokenPrice) public{\r\n        admin=msg.sender;\r\n        tokenContract=_contract;\r\n        tokenPrice=_tokenPrice;\r\n    }\r\n\r\n    //multiply function\r\n    function multiply(uint256 a, uint256 b) internal pure returns(uint c){\r\n        require(b==0 || (c=a*b)/b==a );\r\n    }\r\n\r\n    //buy tokens\r\n    function buyTokens(uint256 _numberOfTokens) public payable{\r\n        require(msg.value==multiply(_numberOfTokens,tokenPrice));\r\n        require(tokenContract.balanceOf(address(this))>=_numberOfTokens);\r\n        require(tokenContract.transfer(msg.sender, _numberOfTokens));\r\n\r\n        tokenSold+=_numberOfTokens;\r\n\r\n        emit Sell(msg.sender,_numberOfTokens);      \r\n    }\r\n\r\n    //End sale\r\n    function endSale() public {\r\n        require(msg.sender==admin);\r\n        require(tokenContract.transfer(admin,tokenContract.balanceOf(address(this))));\r\n\r\n        address payable wallet = address(uint160(admin));\r\n        selfdestruct(wallet);\r\n        //tranferring remaining tokens to admin\r\n        //destroy contract\r\n\r\n    }\r\n}",
  "sourcePath": "D:/ethereuem and solidity/Magellanic ICO/contracts/MagellanicTokenSale.sol",
  "compiler": {
    "name": "solc",
    "version": "0.5.0+commit.1d4f565a.Emscripten.clang"
  },
  "schemaVersion": "3.0.2",
  "updatedAt": "2021-12-09T11:26:26.784Z",
  "devdoc": {
    "methods": {}
  },
  "userdoc": {
    "methods": {}
  }
}